:02000002B0004C
:1040000000400B004CB40D00000006000D0005023E
:0840100004011F0C0000000078
:04401800846B0D00A8
:1040200009480A49884208B505D0094A824202D0A7
:10403000121A1DF015F90748074A0021121A1DF03F
:1040400037F9014808BD00BF70CB03205CB10D00FB
:1040500038CE032038CE0320F0E7032070B5074E9A
:10406000074C01F0F7FBA41BA4080025A54200D1D2
:1040700070BD56F8043B98470135F7E710B10D00C5
:104080004CB10D0000F0D4B908B500F087F9BDE8D7
:10409000084001F097BB01F049B901F047B901F0C0
:1040A0004DB901F04BB900000048704726950D004E
:1040B00008B5034A00210C2001F0A4F8FEE700BF78
:1040C000B54E0B000078B0FA80F04009704701232C
:1040D00003707047436913B183690C301847704708
:1040E00010B50446006808B101F028F9204610BD5B
:1040F00013B500210446084600F024FF00232046A3
:1041000001A9019300F036FF019C0CB1012323713A
:104110000021012000F016FF2CB1236820469B6887
:1041200098470023237102B010BD10B50446006803
:1041300018B1A168091A01F046FF204610BD012AF6
:1041400002D1016000207047022A04BF0B6803609F
:10415000F8E70368184703681B6918470368DB68BA
:10416000184703689B68184710B58368044613B165
:10417000032201469847204610BD07B580680023FA
:1041800040B1CDE900131A46022100F0FBFEB0FA5F
:1041900080F0400903B05DF804FB000038B50F4B18
:1041A0000360836804469BB16FF00041FFF7E5FFB1
:1041B000A068002100F0FEFE237903F0FF0513B193
:1041C00000F0B8FEF8E7A068294600F0CBFEA56035
:1041D00004F10C00FFF7C8FF204638BDB86B0D0096
:1041E00010B5054B044640F8083BFFF7D7FF2046C3
:1041F00000F0E6F9204610BDCC6B0D0010B504466A
:10420000FFF7EEFF2046242101F0DDFE204610BD21
:1042100010B50446FFF7C2FF20461C2101F0D3FE73
:10422000204610BD0379082B96BF034A6FF07F40EC
:1042300052F8230001F08EBAF86B0D0070B588B00B
:104240001C4B1D4A03600492002304AD1B4A0371FA
:10425000044682600373036195E8030004F11402CD
:1042600002AE86E8030092E8030085E8030096E8C2
:10427000030082E80300124AE261226A0792114AAF
:1042800006934EF66021CDE90033226204F1080363
:104290000D4A04F1100000F05DFE2846FFF764FFB0
:1042A000012001F034FA2046FFF7BCFF204608B099
:1042B00070BD00BFCC6B0D0011430B00B86B0D003F
:1042C0003F410B0053410B00F1400B0070B5054E10
:1042D00035680C4673689D4203D055F8040BA0471F
:1042E000F8E770BD5CCE032010B5072304460371C8
:1042F000FFF798FF6FF0004104F10800FFF73DFF62
:1043000002492046FFF7E2FF10BD00BF5D410B00F0
:1043100008B50248FFF7E8FF08BD00BF9CCF0320A7
:1043200008B50379072B02D00149FFF7CFFF08BD7D
:1043300057410B0008B50121022001F0D7FD0121F2
:104340000F2001F0D3FD0121062001F0CFFD012156
:10435000082001F0CBFD0121122001F0C7FD002152
:10436000112001F0C3FD0021132001F0BFFD002149
:10437000022001F0CCFD00210F2001F0C8FD00213A
:10438000062001F0C4FD0121082001F0C0FDBDE8B8
:1043900008400121122001F0BABD000008B5024812
:1043A000FFF7BEFF08BD00BF9CCF032013B50B4C29
:1043B0002178BFF35B8F11F001010BD120460191F1
:1043C000FFF780FE019928B1054801F05BF820460F
:1043D000FFF77DFE024802B010BD00BF3CCE0320B7
:1043E00040CE032013B5044600210830FFF7C5FE78
:1043F000206940B100236FF00042CDE90023194647
:104400001A4600F0BFFDFFF7D1FF074A012101F076
:104410006DF8FFF7CBFF002101F03EF8034920467D
:10442000FFF754FF02B010BD40420F0063410B0084
:1044300010B5144CFFF77EFF002320462371FFF7D1
:10444000F1FE41F2883001F059F901232046237131
:10445000FFF7E8FE01F006FB4FF4165101F0F6FA03
:104460004FF47A7001F04AF901F0FCFA064901F0C4
:10447000E0F8022320462371FFF7D4FE2046FFF721
:10448000B1FF10BD9CCF0320986B0D00F0B5374CE9
:10449000374BA360002687B0C4E90066032000F014
:1044A000B9FE344A3449354D204601F087FD344881
:1044B00000F0CAFC2F4A3349314801F07FFD3248F1
:1044C00000F0A6FC2B4A31492F4801F077FD304817
:1044D00000F066FC274A2F492D4801F06FFD2E4859
:1044E00000F07AFC234A2D492B4801F067FD2C4847
:1044F00000F034FC1F4A2B49294801F05FFD2A488F
:1045000000F01AF91B4A2949274801F057FD0FCD41
:104510006C460FC495E8030084E80300244C18207F
:10452000C4E90066A660FFF7B6FD00F1180620603A
:10453000A6606D46034606AF2A4603CABA42186013
:104540005960154603F10803F6D10A4A194918487B
:10455000666001F033FD1848FFF770FE054A174901
:10456000154807B0BDE8F04001F028BD48CE032053
:104570000000FFFF38CE0320E1400B00E06B0D0090
:1045800054CE0320214E0B00E0CF0320E94D0B0059
:10459000C0CF0320794D0B0058CE0320B14D0B0046
:1045A000C4CF0320254D0B0068CE032029460B0005
:1045B0005CCE03202B410B009CCF0320E1410B007C
:1045C000704738B5054600F1D804AC4204D0183C19
:1045D000204613F0FFFCF8E7204638BD73B500F124
:1045E00008030360D1E900530446EE181DB916B163
:1045F0000C480DF0ABF90F2B019307D9002201A94C
:10460000204613F0C5FC019B2060A360324629467A
:10461000206813F050FD019B226863600021D15493
:1046200002B070BD186C0D0070B5D0E901560A4B90
:1046300003600446AE4204D0284613F0CBFC183584
:10464000F8E7606818B1E168091A01F0BCFC20467F
:10465000FFF7B6FF204670BDC46C0D0010B50446D0
:10466000FFF7E2FF20464FF49A7101F0ACFC2046C0
:1046700010BDF8B50D4614460027A8421FD000F122
:1046800018069CB1034604F10802226053F8081B87
:10469000994210D1194651F804CB42F804CBB142EB
:1046A000F9D142686260C0E90037077213F092FCEA
:1046B00018343046E1E721608268A260F1E72046C5
:1046C000F8BD08B50021022001F021FCC82001F04E
:1046D00015F80121022001F01AFCC82001F00EF8A3
:1046E000BDE808400021022001F011BC08B501F02E
:1046F0008BFABDE808404FF4164101F081BA08B5C5
:10470000FFF7F4FF01210F2001F001FCBDE8084094
:10471000FFF7D7BFFFF7F3BF08B5FFF7D2FF4FF49E
:10472000FA6000F0EBFFBDE8084000210F2001F027
:10473000EEBBFFF7F1BF0000044A02600022C0E9AF
:104740000122C260C0F83021704700BFC46C0D0068
:1047500010B5044600F032FE03681BB900F02EFECF
:1047600023680360204610BD7FB504460D460192C4
:1047700000F024FE0368039300F020FE0023036092
:10478000019A02A920461DF05BFE029B9C42064650
:1047900002D10B480DF0DDF800F010FE0368222B6B
:1047A00006D045B903A8FFF7D3FF304604B070BD6B
:1047B00003480DF0D4F80298001B2860F2E700BF10
:1047C000426C0D0010B5044600F0F8FD03681BB9FB
:1047D00000F0F4FD23680360204610BD30B52DEDD8
:1047E000028B83B004460D4600F0E8FD0368019398
:1047F00000F0E4FD00230360694620461DF042FD01
:10480000009B9C42B0EE408A02D10C480DF0A1F80A
:1048100000F0D4FD0368222B09D05DB901A8FFF791
:10482000D1FFB0EE480A03B0BDEC028B30BD0348A7
:104830000DF095F80098001B2860EFE7476C0D001D
:1048400073B5044616460D4619B912B10D480DF060
:104850007DF8731B0F2B019307D9002201A9204675
:1048600013F096FB019B2060A36032462946206826
:1048700013F026FC019B226863600021D15402B032
:1048800070BD00BF186C0D0038B500F10803054677
:1048900003600C4641B108461CF0A9FE22182146CF
:1048A0002846FFF7CDFF38BD4FF0FF32F7E7000095
:1048B0002DE9F347D0E90087234BA7EB0804E41068
:1048C0005C43224B9C420E460546114602D12048CD
:1048D0000DF042F8012C224638BF0122A418A6EBA5
:1048E000080A2DD274B39C4228BF1C46182060438E
:1048F0000191FFF7D0FB0199814619EB0A0001D025
:10490000FFF76CFE31464A464046FFF7B2FE394695
:1049100000F118023046FFF7ACFE0646B8F1000F72
:1049200005D0A9684046A1EB080101F04CFB182016
:1049300000FB0494C5E90096AC6002B0BDE8F087C6
:104940001C46D3E7A146D8E7ABAAAAAA55555505F8
:104950004C6C0D002DE9F041BAB000F12E01054676
:1049600001A8FFF791FF18A80DF0D8F800243E4ADF
:104970003E4B1893CDE93644CDE93844536807934C
:104980003494ADF8D44053F80C3C92683AA90B44E7
:10499000214643F8CC2C079B089453F80C0C07AB2A
:1049A00018440DF059F8324B079314331893314BD8
:1049B0000F9410A8CDE90934CDE90B44CDE90D449D
:1049C00002F090FA0199029A2B4B09930A4414AB16
:1049D00012A812931194FFF733FF082109A813F0CE
:1049E00082F809A918A80DF037F801A813F0F2FA17
:1049F000D5E9017803AB4745CDE901348DF80C408A
:104A000005F1040607D03C462046183413F0E2FABC
:104A1000A045F9D1AF602C2201A907A801F084FCC0
:104A2000036853F80C3C1844436913F0050F11D187
:104A3000D5E90203984207D010B101A9FFF7CEFDD6
:104A4000AB681833AB60E6E7014601AA3046FFF7D2
:104A50002FFFE0E701A813F0BDFA07A813F0FEF856
:104A60003AB0BDE8F08100BF90950D00308D0D008B
:104A7000AC950D005C960D0030950D002DE9F043CE
:104A8000044687B000F0EEFF04F12E0100F0D1FDE6
:104A90002046FFF75FFFD4F804805A4FD8F80490FF
:104AA00000267B689945F5B209D1B9F1000F0ED007
:104AB0003968D8F800004A461CF0C2FB38B101360C
:104AC000092E07F11807ECD107B0BDE8F083012DDE
:104AD00044D0022DF8D1D8F830000021FFF77EFE37
:104AE000636884ED050A186E0021FFF777FE6168A0
:104AF00084ED040A2B4600227831684613F0C2FD8B
:104B00000A2200210098FFF72FFE2076684613F056
:104B100061FA61682B462A467831684613F0B2FD87
:104B20000A2200210098FFF71FFE6076684613F006
:104B300051FA61682B4604227831684613F0A2FDD1
:104B40000A2200210098FFF70FFEA076684613F0B6
:104B500041FA616803230622783146E000F082FFC3
:104B6000294900F066FD63680021186BFFF736FEE7
:104B7000636884ED050A986C0021FFF72FFE6168D9
:104B800084ED040A022300221831684613F07AFDEE
:104B90000A2200210098FFF7E7FD2076684613F00F
:104BA00019FA616802231A461831684613F06AFD43
:104BB0000A2200210098FFF7D7FD6076684613F0BF
:104BC00009FA6168022304221831684613F05AFD7D
:104BD0000A2200210098FFF7C7FDA076684613F06F
:104BE000F9F96168032306221831684613F04AFD7B
:104BF00000980A220021FFF7B7FDA083684613F052
:104C0000E9F961E7E4CF0320666C0D002DE9F0417E
:104C1000054600F0F9FFD5F8301105F12E07C1F176
:104C2000FF02394400F042FDD5F830412618AB1997
:104C30004FF0000883F82E80A64213D92B1993F861
:104C40002E200A2A0CD183F82E802846FFF716FF63
:104C5000361B611C3246394438461CF001FB0024E7
:104C60000134E9E7C5F83061BDE8F08110B51E4CAC
:104C7000204601F0E7F920461C4C1D4A1D4901F071
:104C80009DF920461C49FFF7FFFD04F118001B4960
:104C9000FFF7FAFD04F130001949FFF7F5FD04F1C3
:104CA00048001849FFF7F0FD04F160001649FFF7CE
:104CB000EBFD04F178001549FFF7E6FD04F19000E3
:104CC0001349FFF7E1FD04F1A8001249FFF7DCFDED
:104CD00004F1C0001049FFF7D7FD2046044A0F49F0
:104CE000BDE8104001F06AB9BCD00320E4CF032036
:104CF00038CE0320AD620B00766C0D00816C0D0088
:104D0000886C0D008F6C0D00966C0D009D6C0D0075
:104D1000A46C0D00AB6C0D00B26C0D00C3450B0014
:104D20007047000010B5034B03600446FFF748FCD2
:104D3000204610BDE06C0D0010B50446FFF7F2FFF1
:104D400020461C2101F03FF9204610BD00220260E0
:104D500042608260C26002614261704708B5044AE5
:104D6000034640F8042BFFF7F1FF184608BD00BFCB
:104D7000E06C0D007047000010B5034B0360044663
:104D8000FFF71EFC204610BDFC6C0D0010B504465C
:104D9000FFF7F2FF2046042101F015F9204610BD6F
:104DA000014B0360704700BFFC6C0D0070470000B2
:104DB00010B5034B03600446FFF702FC204610BD0C
:104DC000186D0D0010B50446FFF7F2FF20460421D0
:104DD00001F0F9F8204610BD014B0360704700BF99
:104DE000186D0D007047000010B5034B03600446BA
:104DF000FFF7E6FB204610BD346D0D0010B50446EC
:104E0000FFF7F2FF2046042101F0DDF8204610BD37
:104E1000014B0360704700BF346D0D007047000008
:104E200010B5034B03600446FFF7CAFB204610BDD4
:104E3000506D0D0010B50446FFF7F2FF2046042127
:104E400001F0C1F8204610BD014B0360704700BF60
:104E5000506D0D0008B5024B1B689B68019308BD9F
:104E60006802030008B5024B1B68DB68019308BDAC
:104E70006802030008B5024B1B689B68019308BDDC
:104E80002C02030008B5024B1B68DB68019308BDC8
:104E90002C02030008B5024B1B681B69019308BD77
:104EA0002C02030008B5024B1B685B68019308BD28
:104EB0001802030008B5024B1B68DB68019308BDAC
:104EC0001802030008B5024B1B685B69019308BD1B
:104ED0001802030008B5024B1B685B68019308BD0C
:104EE0008402030008B5024B1B689B68019308BD50
:104EF0008402030008B5024B1B68DB68019308BD00
:104F00008402030008B5024B1B685B69019308BD6E
:104F10008402030008B5024B1B68DB69019308BDDE
:104F20008402030008B5024B1B681B6A019308BD8D
:104F30008402030008B5024B1B68DB68019308BDBF
:104F40004802030008B5024B1B68DB69019308BDEA
:104F50004802030008B5024B1B681B6A019308BD99
:104F60004802030008B5024B1B685B6A019308BD49
:104F70004802030008B5024B1B689B6A019308BDF9
:104F80004802030008B5024B1B68DB6A019308BDA9
:104F90004802030008B5024B1B685B6C019308BD17
:104FA0004802030008B5024B1B689B6C019308BDC7
:104FB0004802030008B5024B1B681B6F019308BD34
:104FC0004802030008B5024B1B685B69019308BDEA
:104FD0006402030008B5024B1B681B68019308BDFF
:104FE0003C02030008B5024B1B68DB68019308BD57
:104FF0003C02030008B5024B1B681B69019308BD06
:105000003C02030008B5024B1B685B69019308BDB5
:105010003C02030008B5024B1B689B69019308BD65
:105020003C02030008B5024B1B68DB69019308BD15
:105030003C02030008B5024B1B681B6A019308BDC4
:105040003C02030008B5024B1B689B6A019308BD34
:105050003C02030008B5024B1B68DB6A019308BDE4
:105060003C02030008B5024B1B681B6A019308BD94
:105070002802030008B5024B1B685B6A019308BD58
:105080002802030008B5024B1B689B6A019308BD08
:105090002802030008B5024B1B68DB6A019308BDB8
:1050A0002802030008B5024B1B681B6B019308BD67
:1050B0002802030008B5024B1B685B6B019308BD17
:1050C0002802030008B5024B1B681B6C019308BD46
:1050D0002802030008B5024B1B68DB68019308BD7A
:1050E0003002030008B5024B1B681B69019308BD21
:1050F0003002030008B5024B1B68DB69019308BD51
:105100003002030008B5024B1B681B6A019308BDFF
:105110003002030008B5024B1B685B6A019308BDAF
:105120003002030008B5024B1B681B6C019308BDDD
:105130003002030008B5024B1B685B6C019308BD8D
:105140003002030008B5024B1B681B68019308BDC1
:105150004C02030008B5024B1B685B68019308BD55
:105160004C02030008B5024B1B681B69019308BD84
:105170004C02030008B5024B1B685B69019308BD34
:105180004C02030008B5024B1B689B69019308BDE4
:105190004C02030008B5024B1B68DB69019308BD94
:1051A0004C02030008B5024B1B681B6A019308BD43
:1051B0004C02030008B5024B1B685B68019308BDF5
:1051C0006002030008B5024B1B689B68019308BD91
:1051D0006002030008B5024B1B68DB68019308BD41
:1051E0006002030008B5024B1B689B69019308BD70
:1051F0006002030008B5024B1B68DB69019308BD20
:105200006002030008B5024B1B685B6B019308BD8D
:105210006002030008B5024B1B685B68019308BD80
:105220002002030008B5024B1B685B69019308BDAF
:105230002002030008B5034B1B68D3F888300193A4
:1052400008BD00002002030008B5034B1B68D3F81B
:105250009430019308BD00002002030008B5024B02
:105260001B685B68019308BD4002030008B5024B50
:105270001B689B68019308BD4002030008B5024B00
:105280001B68DB68019308BD4002030008B5024BB0
:105290001B681B69019308BD4002030008B5024B5F
:1052A0001B685B69019308BD4002030008B5024B0F
:1052B0001B689B69019308BD4002030008B5024BBF
:1052C0001B68DB69019308BD4002030008B5024B6F
:1052D0001B681B6A019308BD4002030008B5024B1E
:1052E0001B681B6B019308BD4002030008B5024B0D
:1052F0001B685B6B019308BD4002030008B5024BBD
:105300001B681B6C019308BD4002030008B5024BEB
:105310001B685B6C019308BD4002030008B5024B9B
:105320001B68DB6B019308BD4402030008B5024B08
:105330001B681B68019308BD1C02030008B5024BE3
:105340001B685B68019308BD1C02030008B5024B93
:105350001B685B69019308BD1C02030008B5024B82
:105360001B689B69019308BD1C02030008B5024B32
:105370001B685B6A019308BD1C02030008B5024B61
:105380001B68DB6A019308BD1C02030008B5024BD1
:105390001B681B6B019308BD1C02030008B5024B80
:1053A0001B685B6B019308BD1C02030008B5024B30
:1053B0001B689B6B019308BD1C02030008B5024BE0
:1053C0001B68DB6B019308BD1C02030008B5024B90
:1053D0001B681B6C019308BD1C02030008B5024B3F
:1053E0001B685B6C019308BD1C02030008B5024BEF
:1053F0001B689B6C019308BD1C02030000224068DF
:105400001146FFF763BF002240681146FFF76EBFE9
:1054100040680022FFF762BF4068002281F001016E
:10542000FFF74CBF002340681A461946FFF73EBFFE
:10543000002340681A461946FFF730BF0022406833
:105440001146FFF723BF002240681146FFF70EBF49
:10545000406800220221FFF711BF002340681A466E
:10546000FFF7FCBE024B03225A60024A1A607047E3
:10547000C0D003206C6D0D000021FFF75BBE002142
:10548000FFF750BE10B5044608462170FFF732FE04
:1054900000236360204610BD13B5044600780191D7
:1054A000FFF7EDFF019948B920780190FFF712FE50
:1054B000019802B0BDE81040FFF7DEBF02B010BD9A
:1054C000400830B51860002418688842E5B206D953
:1054D0000134082C02D040081860F5E70725024B7C
:1054E0005B5D137030BD00BFA06D0D002DE9F04174
:1054F00088B000230446007802930E461746FFF753
:10550000BEFF054600BB94F800800146142203A8A4
:105510001BF0CEFE0B232A4603A94046ADF80C3003
:10552000FFF7F8FD04988DF8075002AB0DF1070264
:1055300007FB06F1FFF7C4FF20789DF80710FFF77F
:10554000D1FD2078FFF798FF029808B0BDE8F08100
:1055500010B5094B094C02221A600020084BA360C9
:10556000C4E90000FFF756FE2046064A0649BDE89A
:10557000104000F023BD00BFD4D00320C8D00320CA
:105580000000FFFF38CE0320E1400B0010B50446B9
:10559000006808B1FFF706FD204610BD10B5064CA7
:1055A000002320462360FFF7F5FC2046034A044908
:1055B000BDE8104000F002BDD8D0032038CE032053
:1055C0008D550B00F8B506460D468F180024BD42D8
:1055D0000CD0336815F8011B9B6830469847031EB2
:1055E00001DB1C44F3E7002C08BF1C462046F8BD35
:1055F00013B50446084659B101911BF0F8FF236822
:105600000199DB680246204602B0BDE81040184709
:1056100002B010BD03689B68184738B50D210546D8
:10562000FFF7F8FF0A2104462846FFF7F3FF20445E
:1056300038BD38B50546FFF7DBFF04462846FFF7BF
:10564000ECFF204438BD30B58BB00023012A8DF823
:10565000243098BF0A2209AC0D46B1FBF2F101FBE0
:10566000125303F0FF03092B94BF30333733DBB2FF
:10567000AA4204F8013DEFD92146FFF7B9FF0BB06C
:1056800030BD10B50446FFF71DFCE06023682046DE
:105690005B699847002808DAFFF714FCE368C01A32
:1056A000A3689842F2D34FF0FF3010BD2DE9F041CE
:1056B00007460C468E180D46B542A5EB040807D0E8
:1056C0003846FFF7DEFF031E02DB05F8013BF3E778
:1056D0004046BDE8F0810000014B024A1A60704765
:1056E000DCD00320A86D0D00024B1A68024B1A6033
:1056F000704700BF70CB0320E0D003200021FFF7EC
:1057000091BD10B50446FEF72FFD204610BD10B523
:105710000446FFF767FD844208D01CB1BDE8104085
:10572000FFF750BDBDE81040FFF754BD10BD70B588
:1057300005460E461446FFF755FD50B144EA0624CF
:1057400044EA0540FFF736FDBDE87040E720FFF76B
:1057500051BD70BDC2B2C0F30721C0F30740FFF7CF
:10576000E6BF00000348044A04490023836000F0B8
:1057700025BC00BFE4D0032038CE032003570B0024
:10578000014B1860704700BFFCCB032008B50B4BE2
:1057900043B100F067F903681B699847002801DDF1
:1057A000AFF30080064B43B100F02EFA03681B698B
:1057B0009847002801DDAFF3008008BD000000001D
:1057C0000000000008B5FFF7E1FFFFF77BFB014B8E
:1057D000186008BD6CD103200548064A064908B583
:1057E000121A1BF03DFD054B054A1A6008BD00BFAB
:1057F00000F4032004F4032058B10D0000F403204A
:105800001E1C279A07B5002300931A466FF07701F4
:10581000FFF71AFD03B05DF804FB000007B54388ED
:105820000A2B08D0502B0BD1094B1B684BB103B08E
:105830005DF804EB1847FFF7E5FF03B05DF804FBE4
:10584000002300931A466FF07701FFF7FDFCF4E7A1
:10585000F8D0032010B512480021FFF7BFFD114B0F
:105860001A68114B9A42114B0CBF012200221A7088
:1058700001D0FFF7B1FFFFF715FB04461BF072FDE7
:105880000B4B13B12046AFF3008000210848FFF70F
:1058900045FDBDE8104007480021FFF7CBBC00BF25
:1058A00081570B0000F403201E1C279AF4D003201C
:1058B000000000001D580B00704710B51821044669
:1058C00000F081FB204610BDF0B5037D062B8DB0A6
:1058D0000E4600F104074FF0000412D000F1080555
:1058E00015F8011D0A223046FFF7ADFEAF42044411
:1058F00019D0002CF4D02E213046FFF78BFE044443
:10590000EEE72F236A4639460A208DF80040FFF75C
:1059100059FB68461BF06BFE33680246DB6869463C
:1059200030469847044620460DB0F0BD10B5054BF3
:105930000446112240F8043B00211BF0B9FC20462C
:1059400010BD00BFD06D0D000346074A10B543F8E7
:10595000042B01F1100251F8044B43F8044B91421F
:10596000F9D10A781A7010BDD06D0D0010B59DF8F0
:10597000084044EA032343EA024242EA0161042365
:105980004160037510BD000007B5064B0360CB787E
:1059900000938B784A780978FFF7E8FF03B05DF849
:1059A00004FB00BFD06D0D0041747047704708B50F
:1059B0000021007CFFF7E6FB40EAE07008BD08B577
:1059C0000121007CFFF7DEFB40EAE07008BD08B56E
:1059D000007CFFF7CFFB20EAE07008BD08B5007C33
:1059E000FFF7C0FB20EAE07008BD13B50446007C59
:1059F0000191FFF7BFFB0028019901DC607C20B119
:105A0000207CFFF7C7FB20EAE07002B010BD007CED
:105A1000FFF7C8BB10B51421044600F0D4FA2046A5
:105A200010BD000010B54FF47A73044608460021FB
:105A3000C4E90113044B23600123207463741146ED
:105A4000FFF780FB204610BDE46D0D00007C0022B6
:105A5000FFF780BB10B51422044600211BF028FC80
:105A6000204610BD10B5104C88B003A8FFF7F2FF18
:105A70002178BFF35B8F11F0010111D12046019114
:105A8000FEF720FB019958B103AA0848FFF7CAFFA7
:105A90002046FEF71CFB064A0649044800F08EFA31
:105AA000024808B010BD00BFFCD0032000D1032085
:105AB00038CE0320AD590B00002240681146FFF795
:105AC000E5BB002240681146FFF700BC0022406899
:105AD0001146FFF70BBC40680022FFF7FFBB406890
:105AE000002281F00101FFF7E9BB002340681A465C
:105AF0001946FFF7DBBB002340681A461946FFF73B
:105B0000CDBB002240681146FFF7B0BB40680022C1
:105B10000221FFF7B3BB002340681A46FFF79EBB84
:105B2000084B10B528242246184600211BF0C0FB64
:105B3000054B04804FF0FF32426004225A60034A52
:105B40001A6010BD1CD1032014D10320146E0D0067
:105B500070474174704708B5007CFFF773FA20EA7C
:105B6000E07008BD08B5007CFFF744FA20EAE07059
:105B700008BD08B5007CFFF74DFA40EAE07008BDAB
:105B800008B5007CFFF73EFA40EAE07008BD007CF3
:105B9000FFF748BA37B5457C04462DB1207C03B0E9
:105BA000BDE83040FFF71EBA007C0191FFF74AFACA
:105BB00000280199F2DC284603B030BD10B514214D
:105BC000044600F000FA204610BD000010B54FF06A
:105BD000000C0446084611464FF47A72C4E901C22B
:105BE000044A22600122207462741A46FFF7F2F917
:105BF000204610BD506E0D00007C0023FFF72ABA2E
:105C00000022FFF7F9BF0000F7B51B4D2E684EB913
:105C10008420FEF740FA044618B1842231461BF076
:105C200047FB2C60154E37684FB98420FEF733FAD6
:105C3000044618B1842239461BF03AFB3460104CFC
:105C40002178BFF35B8F11F0010112D12046019141
:105C5000FEF738FA019960B12A6833680948FFF7FE
:105C6000B5FF2046FEF733FA074A0849054800F019
:105C7000A5F9044803B0F0BD48D103204CD103205E
:105C800044D1032050D1032038CE0320515B0B00B8
:105C90007047F8B5064615460C468F18BC4206D02C
:105CA000336814F8011B9B6830469847F6E728468E
:105CB000F8BD007C0022FFF7D5B9007C0021FFF77A
:105CC000D9B9007C0021FFF7DDB9007C0021FFF786
:105CD000E1B9007C0021FFF7E5B910B514210446B5
:105CE00000F071F9204610BD10B54FF47A730446E8
:105CF00008460021C4E90113034B236020741146B8
:105D0000FFF7E0F9204610BD806E0D0000234068CB
:105D10001A46FFF7A3BA406800220221FFF7AEBA85
:105D2000002240681146FFF7A1BA002240681146E0
:105D3000FFF7ACBA002340681A461946FFF7AEBA1F
:105D4000002340681A461946FFF7B0BA40680021A0
:105D5000FFF7D4BA40680021FFF7D8BA40680022A4
:105D600081F00101FFF7AABA40680022FFF7B6BA36
:105D7000002240681146FFF7B9BA00224068114678
:105D8000FFF7A4BA2DE9F04395B014460D46074637
:105D9000FFF7CCFD00211C220DA800911BF088FA12
:105DA00040230C9320466B460CAA0021FFF75AF8BB
:105DB000044600284BD1024601216868FFF766FAC5
:105DC0000221804622466868FFF760FA009E8146FD
:105DD0002146002E3BD0002939D17368022B03D015
:105DE0000A2B11D0F669F4E7B8F1000FFAD0716907
:105DF00006A8043107ADFFF7C7FD0FCD3C1D0FC44A
:105E00002B6823704146EDE7B9F1000FEAD07469C1
:105E1000102201A81BF04CFA06238DF8143001ADB6
:105E200004F108031834186859682A4603C2083375
:105E3000A3421546F7D101A906A807ADFFF784FDD7
:105E40000FCD3C1D0FC42B6823704946CAE700984C
:105E5000FFF700F8384615B0BDE8F083024B034A5F
:105E60001A6000225A60704764D10320A86E0D00AA
:105E7000232813B502D9002002B010BDA0F10B03F6
:105E8000022B1AD8174C2178BFF35B8F11F0010158
:105E90000BD120460191FEF715F9019928B112485E
:105EA000FFF7F0FA2046FEF712F90F4B1878FFF7CC
:105EB00029F90028DFD10120DEE7012809D800F008
:105EC00055F80021007CFFF7F5F880F00100C0B222
:105ED000D2E709380128EED8FFF796FE007CFFF7DD
:105EE000A9F8F2E73CCE032040CE0320232838B5A2
:105EF00004460D460AD8FF2908D0FFF7B9FF28B19C
:105F000029462046BDE83840FEF7B4BF38BD38B555
:105F100004460D46FEF7B6FFFF2810D0062804D829
:105F20004D2323FA00F0C30709D42046FFF7A0FF52
:105F300028B129462046BDE83840FEF7ABBF38BD42
:105F400038B52025142304460360856005610649A1
:105F5000284600F03AF804496060284600F035F819
:105F6000E060204638BD00BFDC6E0D0030B50F4D3F
:105F70002978BFF35B8F11F0010487B013D1284655
:105F8000FEF7A0F878B101A8FFF7DAFF01AA2146D1
:105F90000748FFF7A9FE2846FEF799F8054A064983
:105FA000034800F00BF8024807B030BD70D1032061
:105FB00074D1032038CE0320915C0B000B460146C0
:105FC00018461AF039BBFEF76AB8FEF766B800004B
:105FD00037B5051D0446284601910BF09FFD0023AF
:105FE000C4E91D33C4E92033C4E9223384F87C308A
:105FF000054B0199236028461433636003B0BDE864
:1060000030400BF074BD00BF48940D0037B5051D3E
:106010000446284601910BF081FD0023C4E91F339B
:10602000C4E921336367A4F87830054B01992360F4
:1060300028461433636003B0BDE830400BF00CBD5C
:1060400018940D002DE9F04FDFF844922DED028BEE
:10605000D9F80040631C08EE100A83B0C9F800307C
:10606000002C40F0ED80DFF82CB2794B794F7A4E5E
:10607000DFF824A201221A70DBF80030774A9D680D
:10608000BC61C7E90024C7E90244C7E9044407F139
:106090001C0000F027FFDBF80010704A3D624FF053
:1060A000FF384D68C7F800A0C7F82480C6E900246F
:1060B000C6E90244C6E90444B46106F11C0000F0DC
:1060C00011FFC6E90858DBF80010654D634ACB683C
:1060D000C6F800A0C5E90024C5E90244C5E90444A6
:1060E000AC6105F11C00019300F0FCFE019BC5F8BA
:1060F00000A0DFF8A8A1C5E9083839465046FFF7E7
:1061000085FF584A10460BF009FD564A564942F899
:10611000081CA2F108071431B9603146534E1467C8
:10612000C2E91E44C2E92044A2F8744042F8044C7B
:1061300010460BF091FC29463046FFF767FF2946D1
:106140004B48FFF763FF3269DBF80030C7F878A0EF
:1061500042F40052474F3261474A9D68C6F874A026
:10616000C7E90024C7E90244C7E90444BC6107F158
:106170001C0000F0B7FE414EDBF800103E4ADFF88D
:1061800020A1C7F800A0C7E9085806F11C004D6817
:10619000B461C6E90024C6E90244C6E9044400F03B
:1061A000A1FEDBF80010344AD1F80CB0C6F800A00C
:1061B000C6E90858324DC5E90024C5E90244C5E9DD
:1061C0000444AC6105F11C0000F08CFEC5E908B880
:1061D000DFF8D0B0DFF8D080C5F800A039465846C7
:1061E000FFF7F6FE40460BF099FC264B88F8784006
:1061F000A8F10807C8E91C44C8E91F44C8E92144BC
:1062000048F8083C48F8044C14331F4CBB60314636
:1062100040460BF06CFC29462046FFF7D9FE1B4890
:106220002946FFF7D5FE2369C8F870B043F4005340
:106230002361D9F80030C4F874B00133C9F80030D4
:1062400018EE100A03B0BDEC028BBDE8F08F00BF62
:1062500074CB0320A8E2032058E203205C960D00D3
:1062600080E2032050E30320DC8D0D00D8E30320FF
:1062700064E4032020E303209C960D00D0E2032079
:10628000F8E203200C8E0D0010E60320A0E60320A8
:106290008CE10320FCCB0320188C0D00F0E40320DC
:1062A000588C0D0030E7032084E503200D4A136865
:1062B000591E022B10B50446116011D10A4811F085
:1062C000BCF90A4811F0B9F9094811F0B6F90948C2
:1062D00011F0CFF9084811F0CCF9084811F0C9F9CC
:1062E000204610BD8CE10320F0E40320D8E3032016
:1062F00064E4032030E7032010E60320A0E6032037
:1063000008B54368C3F17F5303F57F1303F57F534B
:106310003F339A4202D903480BF01EFBBDE8084008
:1063200012F092B8DD6E0D002DE9F74F05460E46CE
:1063300017460146012201A80BF0B1FC9DF804307C
:106340001BB9002141F0040142E03368002474606D
:106350001C702B6853F80C3C2B446FF04048D3F86A
:106360007890484611F0EBFD421C41D0874236D070
:10637000D9E902B2A2EB0B0AA8EB04029245A8BF2E
:106380009246BAF1010F08DCC1B2304611F048FF65
:106390004846013411F0DCFD15E0524639465846B6
:1063A0001AF0FEFE08B1A0EB0B0A304652465946E1
:1063B000FFF7A6FFD9F808305344C9F8083048461B
:1063C000544411F0BCFD4445CED3431C14D10221EA
:1063D0002B6853F80C0C28440BF01AFB04E04846D9
:1063E00011F0A1FD0134ACD0284603B0BDE8F08F18
:1063F000002CECD10221A5E7B842F0D00421E7E758
:1064000070474268511E012A416002D103685B68EF
:1064100018477047044A0B681268036093421EBF16
:106420001A6801321A6070478CD1032001607047EE
:1064300002490348002218F0BDBC00BFF26E0D00F7
:1064400094D1032010B5034C23680BB9FFF7F0FF7C
:10645000206810BD94D1032000487047F26E0D00F3
:1064600038B5436804465BB10025D4E90132AA423D
:1064700006D953F8250008B1FFF7C3FF0135F4E74B
:10648000606808B1FDF70DFEE3685BB10025D4E953
:106490000223AA4206D953F8250008B1FFF7B1FF3D
:1064A0000135F4E7E06808B1FDF7FBFD23691BB98E
:1064B000206958B9204638BD00252369585908B1CC
:1064C000FDF7EFFD0435182DF7D1F1E7FDF7E9FDF4
:1064D000F0E703685A1E012B10B50446026006D18E
:1064E000FFF7BEFF2046BDE81040FDF7D8BD10BD48
:1064F000054B10B51B6804460068984201D0FFF7B1
:10650000E8FF204610BD00BF8CD103200A4A38B5F1
:106510000B680D4611688B4218BF1A680446006864
:106520001CBF01321A60814201D0FFF7D2FF2B68F5
:106530002360204638BD00BF8CD10320036823B9F7
:10654000034A136801331360036000680138704721
:1065500090D103202DE9F84F044616460846002A3C
:1065600000F0AD80FFF7EAFFA368013B98420546C3
:1065700041D900F104086FF06043984534BF4FEAF9
:1065800088074FF0FF373846D4F804A0FDF785FDA3
:106590008346A0680023984269D1C0F104022A44CE
:1065A0009200804538BF002200210BEB80001AF0DA
:1065B0007FFE3846D4F80C90FDF76FFD0746A068C3
:1065C000002398425AD1C0F104022A449200804527
:1065D00038BF0022002107EB80001AF069FEC4E9F1
:1065E00001B8E760BAF1000F4FD1B9F1000F02D046
:1065F0004846FDF756FD7368D4F804900133736084
:1066000059F825300BB32F490868D0B1FFF796FF32
:1066100085423ED14868D4F804A0FFF78FFF5AF8AE
:10662000203007466BB14968304608F013F84368DC
:106630000133804643605AF82700FFF7E2FE4AF82C
:10664000278059F82500FFF7DCFE49F82560002572
:106650002E46A368AB4232D9E36853F8250020B137
:10666000FFF7CFFEE36843F825600135F1E7626884
:1066700052F823204BF8232001338CE7E26852F8CC
:10668000232047F8232001339BE75046FDF709FDFF
:10669000ABE74868FFF752FF85420ED10868D4F88F
:1066A00004A0FFF74BFF5AF820300746002BC8D054
:1066B0000968304602F0FCFEB9E70831A4E7BDE8FE
:1066C000F88F00BF106F0D002DE9F041214F3B788E
:1066D000BFF35B8FDB0706460C46154606D43846EB
:1066E000FDF7F0FC10B13846FDF7F1FC1A490868D7
:1066F000F0B1FFF723FFA84248680DD1FFF71EFF56
:106700000346F16851F82520AAB104B32368204656
:106710005B68BDE8F0411847FFF710FFA84205D1BC
:106720000868FFF70BFF2B460546EAE70831DEE76E
:106730004FF0FF33E5E76268501C6060581C18BFDB
:10674000023241F825401CBF626041F82340BDE899
:10675000F08100BF88D10320106F0D0010B5084CE8
:106760002378BFF35B8FDB0708D42046FDF7AAFC34
:1067700020B12046BDE81040FDF7A9BC10BD00BF08
:106780009CD103202DE9F04F30238360C24B016080
:1067900087B00646C022002118461AF089FDBF4B7B
:1067A0007060C022184600211AF082FDBC4CBD4D1D
:1067B000F06014220021201D1AF07AFD346125605A
:1067C000FFF74AFEB84C03882B80002201231146B4
:1067D000204604F067FB22463046B449B44CDFF84B
:1067E000C4A3DFF8C4B3B34DDFF8C093DFF8C083B0
:1067F000FFF7B0FEB04A0121104618F04BFB3046BF
:10680000AD4AAE49FFF7A6FEAD4AAE4B1360012775
:106810000023C2E90233C2E90533C2E90733137426
:10682000938482F8643057601146A74A67602260FB
:10683000A1602046194600F00FFF22463046A349CA
:10684000A34CFFF787FEA34AA34957601160304667
:10685000A249FFF77FFEA24AA24957601160304665
:10686000A149FFF777FEA14A67602260FFF7EAFDC2
:106870002246A0609E499F4C3046FFF76BFE9E4A21
:10688000CAF8002000239D4A676019462260C4F8B8
:1068900008A01A462046CAE90233CAE90533CAE904
:1068A0000733CAE90933CAE90B33AAF810308AF86A
:1068B0001230CAF834308AF84330CAF8047000F055
:1068C0006FFB224630468E498E4CFFF743FE8E4AC0
:1068D000CBF8002000238D4A676019462260C4F877
:1068E00008B01A462046CBE90233CBE90533CBE9A1
:1068F0000733CBE90933CBE90B33ABF810308BF816
:106900001230CBF834308BF84330CBF8047000F001
:1069100003FB224630467E497E4CFFF71BFE7E4A33
:106920007E495760116030467D49FFF713FE7D4A6E
:106930007D495760116030467C49FFF70BFE00230C
:106940007B4A6F60C5E90233C5E90433C5E9063304
:10695000C5E90833C5E90A33C5E90C33C5E90E3387
:10696000C5E91033C5E91233C5E91433C5E9163357
:10697000C5E91833C5E91A33C5E91C33C5E91E3327
:106980002A602946C5E920333A46C5E92233C5E9DC
:106990002433C5E92633C5E92833C5E92A33C5E9D7
:1069A0002C33C5E92E33C5F8C03085F8C4302046F5
:1069B0000BF08AFD224630465E495F4CFFF7CAFD68
:1069C0005E4A5F495760116030465E49FFF7C2FD7D
:1069D0005D4A5E495760116030465D49FFF7BAFD78
:1069E0005C4A3946104605F015F83046594A5A496E
:1069F000FFF7B0FD594A3946104604F03FFA3046D9
:106A0000564A5749FFF7A6FD564A3946104618F030
:106A100051FA3046534A5449FFF79CFD534B544AB0
:106A20001A601A465F600023C2E90233C2E90533E7
:106A3000C2E9073313745362936282F8243111461A
:106A40004C4A67602260A1602046194600F06CFE47
:106A5000224630464849494CFFF77CFD484A49499F
:106A60005760116030464849FFF774FD474A48496E
:106A70005760116030464749FFF76CFD464A676032
:106A80002260FFF7DFFC2246A0604449444C3046B8
:106A9000FFF760FD8EE000BF44DF032054DE0320DB
:106AA0003CDE03202CD7032038D7032004E1032049
:106AB000C0D1032034D4032014DF032050E203208C
:106AC000A4D2032018700D00307E0D0038E10320A1
:106AD0002CDF032004E00320CC8E0D00D8E103203E
:106AE00014E00320088F0D00D4E10320147E0D0074
:106AF0002CE1032064D20320B06F0D00887E0D00CE
:106B000048E1032070D20320A06F0D00547E0D00D9
:106B100044E1032028D2032008D20320D87E0D00B0
:106B200040E1032018D20320F07E0D003CE1032059
:106B3000388F0D00D0E10320CCD10320D8D1032021
:106B4000087F0D0034E10320E8D1032038900D00C8
:106B5000CCE10320A0D1032030E1032058D9032049
:106B600008E1032020DF032054E203200CD303209C
:106B700028700D0008890D0078E1032038DF03201C
:106B80000CE0032020980D0038E203201CE00320D5
:106B90005C980D0034E20320EC880D006CE10320CA
:106BA0007CD20320C4D5032008D603204CD6032072
:106BB000BCD603208F4AC9F8002000238E4A6760A4
:106BC00019462260C4F808901A462046C9E90233E3
:106BD000C9E90533C9E90733C9E90933C9E90B3301
:106BE000C9E90D3389F81030C9F83C3089F86C30A8
:106BF000C9F8047000F094FA224630467F49804C70
:106C0000FFF7A8FC7F4AC8F8002000237E4A67608F
:106C100019462260C4F808801A462046C8E90233A3
:106C2000C8E90533C8E90733C8E90933C8E90B33B4
:106C3000C8E90D3388F81030C8F83C3088F86C305B
:106C4000C8F8047000F024FA224630466F49704CB0
:106C5000FFF780FC6F4A70495760116030466F49FA
:106C6000FFF778FC6E4A6F495760116030466E49F5
:106C7000FFF770FC00236D4A6760C4E90233C4E982
:106C80000433C4E90633C4E90833C4E90A33C4E968
:106C90000C33C4E90E33C4E91033C4E91233C4E938
:106CA0001433C4E91633C4E91833C4E91A33C4E908
:106CB0001C33C4E91E332260C4E92033C4E9223303
:106CC000C4E92433C4E92633C4E92833C4E92A33A8
:106CD000C4E92C33C4E92E33C4F8C03084F8C4307E
:106CE000534B3A462146184612F0E4F8504B5149AE
:106CF0001A463046FFF72EFC4F4A504B5760136040
:106D000030464F49FFF726FC4E4A4F4B1360576001
:106D100030464E49FFF71EFC4D4A3946104608F0F2
:106D20008DFD30464A4A4B49FFF714FC4A4A4B4B0B
:106D30005760136030464A49FFF70CFC494A4A4BFA
:106D40005760136030464949FFF704FC484A494BF5
:106D50005760136030464849FFF7FCFB474A484BF1
:106D60005760136030464749FFF7F4FB4649474BED
:106D7000CDF808B0CDE9031930466946CDE9003AAF
:106D8000CDF8148001F0ECFA4148F768FFF7D6FB24
:106D90003E4B47F820303F48F768FFF7CFFB47F8F6
:106DA00020A03D48F768FFF7C9FB47F820B03B48F3
:106DB000F768FFF7C3FB47F820503948F568FFF73D
:106DC000BDFB314945F820100C48F568FFF7B6FBCC
:106DD00045F820900D48F568FFF7B0FB45F8208096
:106DE0001448F568FFF7AAFB45F82040304607B085
:106DF000BDE8F08FD06F0D0060890D0088E10320A1
:106E000088D20320C06F0D002C890D0084E103207F
:106E1000FCD4032010D20320B0890D0080E10320B0
:106E200020D20320C8890D007CE103208C980D003E
:106E30003CD2032030E20320E0D10320E0890D00A2
:106E400074E10320F0D103208C990D002CE2032083
:106E5000B0D1032070E10320F8D1032068730D0046
:106E600030E0032000D2032010730D0028E003203F
:106E700094D203203C730D002CE003209CD203200D
:106E8000E4720D0024E003200CD30320A4D20320DD
:106E900038E1032048E1032044E10320D0E103204E
:106EA00078E1032010B5074C02212046FFF76AFC69
:106EB000054B06481C60064B21461C60BDE810408F
:106EC000FFF7B4BA50D203208CD1032038DE032060
:106ED00098D10320024B1B680BB9FFF7E3BF704743
:106EE0008CD1032038B5002303600446084DFFF71A
:106EF000F1FF084A2B6812682360934206D0FFF71F
:106F00002DFC2B6823601A6801321A60204638BDB8
:106F100098D103208CD1032038B584680546ACB9DC
:106F20004420FDF7B8F81A4B0482C0E90034C0E9E8
:106F30000244C0E90544C0E90744C0E90944C0E986
:106F40000B448474446380F84340A860AB681149E3
:106F50002E225A74AB682C229A74AA680023C2E9C4
:106F60000513C2E90713C2E9091391600A49D36006
:106F700008681063D362AA685063084A1068AA6858
:106F8000C15C1A4401330B2B82F83810F7D138BD9D
:106F9000A06F0D0026950D0000A10D0080CB0320F1
:106FA00038B584680546ACB94420FDF774F81A4B2F
:106FB0000482C0E90034C0E90244C0E90544C0E9E4
:106FC0000744C0E90944C0E90B448474446380F871
:106FD0004340A860AB6811492E225A74AB682C223A
:106FE0009A74AA680023C2E90513C2E90713C2E92B
:106FF000091391600A49D36008681063D362AA68D4
:107000005063084A1068AA68C15C1A4401330B2B0C
:1070100082F83810F7D138BDB06F0D0026950D00FD
:1070200000A10D0080CB0320064B10B50446036081
:10703000806810B103685B6898472046FFF7E0F965
:10704000204610BD547E0D0010B50446FFF7ECFF3E
:107050002046FDF724F8204610BD0000064B10B571
:1070600004460360806810B103685B689847204657
:10707000FFF7C6F9204610BD887E0D0010B5044606
:10708000FFF7ECFF2046FDF70AF8204610BD000090
:1070900038B584680546B4B97020FCF7FCFFC0E938
:1070A0000244C0E90544C0E90744C0E90944C0E915
:1070B0000B44C0E90D44154B446003600474C46381
:1070C00080F86C40A860AB682E212C22C3E9051221
:1070D0000F49104A9A600022C3E90712C3E9091256
:1070E000C3E90B12DA605A630B4A10689863AB6805
:1070F000D8630A4BAA681B684032591E0A3311F83C
:10710000010F42F8040B9942F9D138BDC06F0D0050
:10711000A0AF0D0026950D0000A10D0080CB03202F
:1071200038B584680546B4B97020FCF7B4FFC0E9EF
:107130000244C0E90544C0E90744C0E90944C0E984
:107140000B44C0E90D44154B446003600474C463F0
:1071500080F86C40A860AB682E212C22C3E9051290
:107160000F49104A9A600022C3E90712C3E90912C5
:10717000C3E90B12DA605A630B4A10689863AB6874
:10718000D8630A4BAA681B684032591E0A3311F8AB
:10719000010F42F8040B9942F9D138BDD06F0D00B0
:1071A000A0AF0D0026950D0000A10D0080CB03209F
:1071B000064B10B504460360806810B103685B6835
:1071C00098472046FFF71CF9204610BD2C890D007A
:1071D00010B50446FFF7ECFF2046FCF760FF2046A1
:1071E00010BD0000064B10B504460360806810B166
:1071F00003685B6898472046FFF702F9204610BDF8
:1072000060890D0010B50446FFF7ECFF2046FCF73F
:1072100046FF204610BD00000D4B10B5036090F8EE
:10722000433004467BB1806808B1FCF73AFF6069DF
:1072300008B1FCF736FFE06908B1FCF732FF606A7D
:1072400008B1FCF72EFF2046FFF7DAF8204610BD04
:10725000A06F0D0010B50446FFF7DEFF2046FCF7D7
:107260001EFF204610BD00000D4B10B5036090F8C6
:10727000433004467BB1806808B1FCF712FF6069B7
:1072800008B1FCF70EFFE06908B1FCF70AFF606A7D
:1072900008B1FCF706FF2046FFF7B2F8204610BD04
:1072A000B06F0D0010B50446FFF7DEFF2046FCF777
:1072B000F6FE204610BD00000D4B10B5036090F89F
:1072C0006C3004467BB1806808B1FCF7EAFEE069E7
:1072D00008B1FCF7E6FE606A08B1FCF7E2FEE06A7E
:1072E00008B1FCF7DEFE2046FFF78AF8204610BD05
:1072F000C06F0D0010B50446FFF7DEFF2046FCF717
:10730000CEFE204610BD00000D4B10B5036090F876
:107310006C3004467BB1806808B1FCF7C2FEE069BE
:1073200008B1FCF7BEFE606A08B1FCF7BAFEE06A7D
:1073300008B1FCF7B6FE2046FFF762F8204610BD04
:10734000D06F0D0010B50446FFF7DEFF2046FCF7B6
:10735000A6FE204610BD000038B584680546ACB9CD
:107360004420FCF798FE1A4B0482C0E90034C0E9BF
:107370000244C0E90544C0E90744C0E90944C0E942
:107380000B448474446380F84340A860AB6811499F
:107390002E225A74AB682C229A74AA680023C2E980
:1073A0000513C2E90713C2E9091391600A49D360C2
:1073B00008681063D362AA685063084A1068AA6814
:1073C000C15C1A4401330B2B82F83810F7D138BD59
:1073D000A06F0D0026950D0000A10D0080CB0320AD
:1073E00038B584680546ACB94420FCF754FE1A4B06
:1073F0000482C0E90034C0E90244C0E90544C0E9A0
:107400000744C0E90944C0E90B448474446380F82C
:107410004340A860AB6811492E225A74AB682C22F5
:107420009A74AA680023C2E90513C2E90713C2E9E6
:10743000091391600A49D36008681063D362AA688F
:107440005063084A1068AA68C15C1A4401330B2BC8
:1074500082F83810F7D138BDB06F0D0026950D00B9
:1074600000A10D0080CB0320064B10B5044603603D
:10747000806810B103685B6898472046FEF7C0FF3C
:10748000204610BD588F0D0010B50446FFF7ECFFE5
:107490002046FCF704FE204610BD0000064B10B548
:1074A00004460360806810B103685B689847204613
:1074B000FEF7A6FF204610BD8C8F0D0010B50446C8
:1074C000FFF7ECFF2046FCF7EAFD204610BD000068
:1074D00038B584680546B4B97020FCF7DCFDC0E916
:1074E0000244C0E90544C0E90744C0E90944C0E9D1
:1074F0000B44C0E90D44154B446003600474C4633D
:1075000080F86C40A860AB682E212C22C3E90512DC
:107510000F49104A9A600022C3E90712C3E9091211
:10752000C3E90B12DA605A630B4A10689863AB68C0
:10753000D8630A4BAA681B684032591E0A3311F8F7
:10754000010F42F8040B9942F9D138BDC06F0D000C
:10755000A0AF0D0026950D0000A10D0080CB0320EB
:1075600038B584680546B4B97020FCF794FDC0E9CD
:107570000244C0E90544C0E90744C0E90944C0E940
:107580000B44C0E90D44154B446003600474C463AC
:1075900080F86C40A860AB682E212C22C3E905124C
:1075A0000F49104A9A600022C3E90712C3E9091281
:1075B000C3E90B12DA605A630B4A10689863AB6830
:1075C000D8630A4BAA681B684032591E0A3311F867
:1075D000010F42F8040B9942F9D138BDD06F0D006C
:1075E000A0AF0D0026950D0000A10D0080CB03205B
:1075F000064B10B504460360806810B103685B68F1
:1076000098472046FEF7FCFE204610BDAC980D00C2
:1076100010B50446FFF7ECFF2046FCF740FD20467E
:1076200010BD0000064B10B504460360806810B121
:1076300003685B6898472046FEF7E2FE204610BDCF
:10764000E0980D0010B50446FFF7ECFF2046FCF76C
:1076500026FD204610BD000038B58468054684B973
:107660006820FCF718FDC0E90244C0E90544C0E900
:1076700007441A4B446003600474848480F86440B7
:10768000A860AA68164B93602E21002382F824106C
:10769000D3601374AA682C2182F82510114A10684F
:1076A000AA68C15C1A440133242B82F82610F7D152
:1076B0000D4B18680023AA68C15C1A4401331A2BC9
:1076C00082F84A10F7D1AB68084A5A6104229A61DD
:1076D000074ADA6105221A6238BD00BF18700D0032
:1076E00026950D007CCB032078CB0320D86F0D00AE
:1076F000DD6F0D00064B10B504460360806810B1C5
:1077000003685B6898472046FEF77AFE204610BD66
:10771000307E0D0010B50446FFF7ECFF2046FCF765
:10772000BEFC204610BD000038B58468054694B9FB
:107730004FF49470FCF7AFFCC0E90244C0E9054483
:10774000C0E90744C0E90944184B4460036004746D
:1077500080F82441A860AB68154A9A6000222E2167
:10776000DA601A742C22C3E90912124A126803F172
:107770002C00511E233211F8014F40F8044B914266
:10778000F9D10D4A126803F1BC00511E193211F8EB
:10779000014F40F8044B9142F9D1084A5A61042242
:1077A0009A61074ADA6105221A6238BD28700D0015
:1077B00026950D007CCB032078CB0320E46F0D00D1
:1077C000F86F0D00064B10B504460360806810B1D9
:1077D00003685B6898472046FEF712FE204610BDFE
:1077E00008890D0010B50446FFF7ECFF2046FCF7B2
:1077F00056FC204610BD00000B4B10B5036090F8FE
:10780000643004465BB1806808B1FCF74AFC6069EB
:1078100008B1FCF746FCE06908B1FCF742FC2046E1
:10782000FEF7EEFD204610BD18700D0010B50446A1
:10783000FFF7E2FF2046FCF732FC204610BD0000B7
:107840000B4B10B5036090F8243104465BB180689F
:1078500008B1FCF726FC606908B1FCF722FCE0697E
:1078600008B1FCF71EFC2046FEF7CAFD204610BDFD
:1078700028700D0010B50446FFF7E2FF2046FCF724
:107880000EFC204610BD000038B58468054684B95A
:107890006820FCF700FCC0E90244C0E90544C0E9E7
:1078A00007441A4B446003600474848480F8644085
:1078B000A860AA68164B93602E21002382F824103A
:1078C000D3601374AA682C2182F82510114A10681D
:1078D000AA68C15C1A440133242B82F82610F7D120
:1078E0000D4B18680023AA68C15C1A4401331A2B97
:1078F00082F84A10F7D1AB68084A5A6104229A61AB
:10790000074ADA6105221A6238BD00BF18700D00FF
:1079100026950D007CCB032078CB0320D86F0D007B
:10792000DD6F0D00064B10B504460360806810B192
:1079300003685B6898472046FEF762FD204610BD4D
:10794000A88E0D0010B50446FFF7ECFF2046FCF7AB
:10795000A6FB204610BD000038B58468054694B9E2
:107960004FF49470FCF797FBC0E90244C0E905446A
:10797000C0E90744C0E90944184B4460036004743B
:1079800080F82441A860AB68154A9A6000222E2135
:10799000DA601A742C22C3E90912124A126803F140
:1079A0002C00511E233211F8014F40F8044B914234
:1079B000F9D10D4A126803F1BC00511E193211F8B9
:1079C000014F40F8044B9142F9D1084A5A61042210
:1079D0009A61074ADA6105221A6238BD28700D00E3
:1079E00026950D007CCB032078CB0320E46F0D009F
:1079F000F86F0D00064B10B504460360806810B1A7
:107A000003685B6898472046FEF7FAFC204610BDE5
:107A1000FC970D0010B50446FFF7ECFF2046FCF77D
:107A20003EFB204610BD009B03201A6070470020DB
:107A300070470020704704207047009B03201A60A5
:107A40007047009B03201A607047009B03201A6058
:107A50007047F0B50546D0E90020801A65D092F94C
:107A600000401378002C03DB01322A601846F0BD79
:107A7000C12B3BD9DF2B0FD8012856D0507800F00E
:107A8000C004802C32D100EB8310A0F5425081421B
:107A9000EDD302322A60EAE7EF2B1AD8022844D944
:107AA000547804F0C000802820D1E02B01D19F2C15
:107AB0001CD9907800F0C006802E17D1A40104EBE9
:107AC00003330344A3F5622080388142CFD30332CD
:107AD000E0E7F42B0AD8032827D9547804F0C00033
:107AE000802803D1F02B04D18F2C06D84FF0FF3023
:107AF000BDE7F42B01D18F2CF8D8967806F0C000A2
:107B00008028F3D1D07800F0C007802FEED1240375
:107B100004EB834303EB86130344A3F17270A0F5D7
:107B200002508842A3D80432B4E76FF001009EE708
:107B3000F0B50546D0E90020801A65D092F90040E2
:107B40001378002C03DB01322A601846F0BDC12BEC
:107B50003BD9DF2B0FD8012856D0507800F0C00455
:107B6000802C32D100EB8310A0F542508142EDD33E
:107B700002322A60EAE7EF2B1AD8022844D9547857
:107B800004F0C000802820D1E02B01D19F2C1CD90B
:107B9000907800F0C006802E17D1A40104EB0333C7
:107BA0000344A3F5622080388142CFD30332E0E75B
:107BB000F42B0AD8032827D9547804F0C000802871
:107BC00003D1F02B04D18F2C06D84FF0FF30BDE746
:107BD000F42B01D18F2CF8D8967806F0C0008028BD
:107BE000F3D1D07800F0C007802FEED1240304EB4E
:107BF000834303EB86130344A3F17270A0F5025094
:107C00008842A3D80432B4E76FF001009EE77F29D1
:107C100008D8D0E900329A4242D05A1C026019704A
:107C200001207047B1F5006F10D2D0E90032D21AAE
:107C3000012A35D95A1C02608A09403A1A70036831
:107C400001F03F015A1C02608039E8E7B1F5803F3E
:107C500011D2D0E90032D21A022A21D95A1C02606C
:107C60000A0B203A1A700268531C0360C1F3851393
:107C7000803B1370E3E7B1F5881F11D2D0E90032E1
:107C8000D21A032A0CD95A1C02608A0C103A1A70B4
:107C90000268531C0360C1F30533803B1370E2E7B5
:107CA000002070477F2910B508D8D0E900329A42E9
:107CB00047D05A1C02601970012010BDB1F5006F49
:107CC0000FD2D0E90032D21A012A3AD98C091A46C9
:107CD000403C02F8024B01F03F01803902605970CC
:107CE000EAE7B1F5803F12D2D0E90032D21A022A77
:107CF00027D90A0B203A1A70C1F38512803A01F095
:107D00003F015A708039DA1C02609970D4E7B1F5EE
:107D1000881F16D2D0E90032D21A032A11D98A0C50
:107D2000103A1A70C1F30532803A5A70C1F38512C5
:107D3000803A01F03F019A7080391A1D0260D970B3
:107D4000BAE70020B9E7B1F5803F10B5D0E90043AC
:107D50000BD2A34222D0D30789B201D449BA89B247
:107D6000A31C03602180012010BD1B1B022B15D911
:107D70008B0AC1F30901A3F52153A1F5105112F0AB
:107D800001029BB289B201D15BBA9BB223800AB9CE
:107D900049BA89B2231D03606180E4E70020E3E76C
:107DA00073B51E46079B0093089B01931446A64299
:107DB000254612D02168B1F5881F04F104040ED2C3
:107DC0006846FFF76FFF0028F1D10120069B009A5B
:107DD0001D60099B1A6002B070BD0020F6E702200A
:107DE000F4E7000030B585B0CDE90023099B02938C
:107DF000144D0A9B0393DDE90123009CA24215D098
:107E0000039A9A4212D029466846FFF791FE831CD6
:107E1000014609D0B0F5881F11D2012202A8FFF750
:107E200092FF0028E7D10094012000E00020089B89
:107E3000009A1A600B9B029A1A6005B030BD0220AE
:107E4000F5E700BFFFFF10008B070CD5D0E900322B
:107E5000D21A022A09D9064A1188927819809A7092
:107E6000036803330360012070470020704700BFA0
:107E700030700D002DE9F0410E460446194630469B
:107E8000069D1746FFF7E0FF78B3D4E900329A4227
:107E90002ED01988A1F55840B0F5806F1DD2012D64
:107EA00028D0D21A022A23D95B88A3F55C42B2F506
:107EB000806F1FD2A3F15773A3F5773303EB8121B2
:107EC0004FF002088F4215D33046FFF7A0FE60B195
:107ED000236803EB48032360D7E7A1F55C43B3F5C0
:107EE000806F07D34FF00108ECE70120BDE8F08177
:107EF0000020FBE70220F9E77FB5CDE90223099BCB
:107F000004930A9B059300230093074A04A902A83F
:107F1000FFF7B0FF089B029A1A600B9B049A1A6045
:107F200007B05DF804FB00BFFFFF100070B50D4601
:107F30000446194628461646FFF786FF70B1D4E975
:107F400000329A420CD019688E420BD32846FFF7B4
:107F50005EFE18B1236804332360F0E7012070BD92
:107F60000020FCE70220FAE71FB5CDE90023079BBC
:107F70000293089B0393074A002302A96846FFF770
:107F8000D5FF069B009A1A60099B029A1A6005B0F9
:107F90005DF804FBFFFF100038B54B0704460CD515
:107FA000D0E900535B1B022B07D904490322284662
:107FB00019F046F908B90335256038BD00710D0088
:107FC00070B50C46194605461646FFF7E5FFD5E99C
:107FD00000239A4212D0D4E900329A4201D1012002
:107FE00070BD31462846FFF734FD831CF7D086422A
:107FF00006D323681A1D22601860E8E70020EFE727
:108000000220EDE71FB5CDE90023079B0293089BF3
:108010000393074A002302A96846FFF7D1FF069B96
:10802000009A1A60099B029A1A6005B05DF804FB79
:10803000FFFF100037B5CDE9000168469DF8181024
:1080400014461D46FFF7A8FF002044B1A84204F1E2
:10805000FF3404D829466846FFF7FBFCF5E7009893
:1080600003B030BD13B51446194600230093049A9B
:10807000034B2046FFF7DEFF001B02B010BD00BF20
:10808000FFFF10002DE9F8430D4619460446174638
:108090001E46FFF781FFD4E90098C1451BD0D5E902
:1080A00000329A4217D039462046FFF7D2FC831C93
:1080B000014604D108980130C0B2BDE8F883874278
:1080C0000BD332462846FFF73EFE0028E3D1C4E931
:1080D00000980120F1E70020EFE70220EDE7000023
:1080E0007FB5CDE90223099B04930A9B05930023E6
:1080F0000093074A012304A902A8FFF7C3FF089BC6
:10810000029A1A600B9B049A1A6007B05DF804FB90
:10811000FFFF1000F7B5CDE900019DF8201068467B
:1081200016461C46FFF738FF00256F1CB7420ED2DB
:1081300021466846FFF78DFCA04202D9009803B0A3
:10814000F0BDB0F5803F28BF3D460135EDE7F5D1E4
:108150004FF6FF734FF6FE718C4294BF21461946CD
:108160006846FFF776FCE9E713B514461946002385
:108170000093049A034B2046FFF7CCFF001B02B08C
:1081800010BD00BFFFFF100073B51D46079B009395
:10819000089B01931446A54225D02188A1F5584398
:1081A000B3F5806F15D22B1B022B1CD96288A2F568
:1081B0005C43B3F5806F1ED2A2F15772A2F57732FD
:1081C00002EB812102266846FFF76CFD40B90120D1
:1081D0000AE0A1F55C43B3F5806F0CD30126F2E70A
:1081E00004EB4604D7E70020069B009A1C60099B1D
:1081F0001A6002B070BD0220F6E7000037B5DDE975
:108200000745CDE900230F49DDE900329A4214D039
:10821000A54207D10120069B009A1A60099B1C60A9
:1082200003B030BD6846FFF783FC831CF2D0B0F585
:10823000881F04D244F8040BE6E70020EBE7022095
:10824000E9E700BFFFFF100037B5CDE90023069D29
:1082500008491446002045B1B0F5881F05F1FF35E7
:1082600003D26846FFF764FCF5E70098001B03B0F3
:1082700030BD00BFFFFF1000F7B5CDE90023089E19
:108280000E4915460024671CBE420FD96846FFF709
:108290004FFCB0F5881F03D30098401B03B0F0BD1E
:1082A000B0F5803F28BF3C460134ECE7F4D14FF6EF
:1082B000FF716846FFF73CFCEEE700BFFFFF1000D0
:1082C00010B5034B03600446FEF79AF8204610BD34
:1082D000DC700D0010B50446FFF7F2FF2046FBF7F7
:1082E000DEFE204610BD000010B5034B03600446BF
:1082F000FEF786F8204610BD58700D0010B50446F4
:10830000FFF7F2FF2046FBF7CAFE204610BD000033
:1083100010B5034B03600446FEF772F8204610BD0B
:1083200084700D0010B50446FFF7F2FF2046FBF7FE
:10833000B6FE204610BD000010B5034B0360044696
:10834000FEF75EF8204610BDB0700D0010B5044673
:10835000FFF7F2FF2046FBF7A2FE204610BD00000B
:108360002DE9F04F89B00B6801934B68A94F029338
:108370008B680393A84B3B600125019B7D600446FD
:108380000E46BB6000213846FFF77EFA7B68D4F8C2
:108390000480DFF818B3DFF818A32B447B609F4BF1
:1083A0001846FEF7CBF848F820709D4F9D4A7D6037
:1083B0003A60FEF747F87A68D4F80480B8602A4437
:1083C0007A609948FEF7BAF848F82070974F984AB3
:1083D000029B3A600022BB6011467D603846FEF782
:1083E000FFFF7A68D4F804802A447A605846FEF782
:1083F000A5F848F820708F4F8F4A039B3A600022FF
:10840000BB6011467D603846FEF7A6FF7A68D4F857
:1084100004802A447A605046FEF790F848F82070AD
:10842000DFF89082854AD4F80490C8F8002002272B
:10843000C8F804708248FEF781F849F82080DFF818
:108440007882804AD4F80490C8F80020C8F80470F4
:108450007D48FEF773F849F82080DFF860827B4A98
:10846000D4F80490C8F80020C8F804707848FEF7E3
:1084700065F849F82080DFF84882294640460AF02E
:108480003DF9D8F80420D4F8049072482A44C8F87A
:108490000420FEF753F849F82080F3680493336909
:1084A000059373696C4E6D4A0693049BB36000217B
:1084B000756032603046FFF74FFA7268DFF8049259
:1084C000D4F804802A4472604846FEF737F848F82A
:1084D0002060634E634A75603260FDF7B3FF7268D7
:1084E000D4F80480B0602A4472605F48FEF726F832
:1084F00048F820605D4E5E4A059B32600022B36002
:10850000756011463046FFF72BF87268DFF8B881C6
:10851000616807912A4472604046FEF70FF8079998
:10852000544A41F82060544E069B32600022B360EA
:10853000756011463046FEF7CBFF7268616807919F
:108540002A4472604D4A1046FDF7F8FF079941F83A
:1085500020604B4E4B4931604B4861687760079112
:10856000FDF7ECFF079941F82060484E484931601B
:108570004848616877600791FDF7E0FF079941F887
:108580002060454E454931604548616877600791F4
:10859000FDF7D4FF079941F82060424E2946304646
:1085A00010F0A2FD716865683F4801317160FDF708
:1085B000C5FF1A4B45F820601846E568FDF7BEFF79
:1085C000019B45F820305846E568FDF7B7FF029B50
:1085D00045F820305046E568FDF7B0FF039B45F8AD
:1085E00020304846E568FDF7A9FF049B45F8203098
:1085F0004046E568FDF7A2FF204A059B45F820307C
:108600001046E468FDF79AFF069B44F8203009B055
:10861000BDE8F08F54E00320A88E0D00DCE10320BC
:10862000CCE003208C8E0D00C0E103209CE00320F1
:108630008C8F0D00A8E00320588F0D0008900D00CE
:10864000E4E1032020900D00E0E103204C900D00B8
:10865000C8E10320C4E1032060E00320FC970D0083
:10866000D8E00320A0970D0020E20320B4E003200F
:10867000E0980D00AC980D00C0E0032048E2032014
:1086800084E003205C990D0044E2032094E0032081
:1086900074990D0040E2032074E00320A0990D00BE
:1086A00028E2032044E0032024E20320ECE103203D
:1086B000E8E103207CE003208CE003206CE0032051
:1086C00034E003203CE203204CE2032001F04EBDE5
:1086D00002F0F8B8F8B50B6853F80C5C0746681C54
:1086E0000E46FBF7DAFC0023044601462A463046D4
:1086F00001F072FC002363553C602846F8BDF8B5D4
:108700000B6853F80C5C6FF060426B1C9342074699
:1087100034BF98004FF0FF300E46FBF7BEFC00233D
:10872000044601462A46304602F010F8002344F879
:1087300025303C602846F8BD13B5049CCDE90034D3
:1087400013460A46C1684FF0000005F026FD02B04E
:1087500010BD30B58BB00D460AA901E90C00792394
:108760000693129B0593119B0493109B03930EAAEF
:10877000044692E8030001AB83E80300099B0093E1
:108780002046089BAA684FF0000105F0AEFE204687
:108790000BB030BD30B58BB00D460AA901E90C0015
:1087A0006D230693129B0593119B0493109B0393D7
:1087B0000EAA044692E8030001AB83E80300099B7C
:1087C00000932046089BAA684FF0000105F08DFE3B
:1087D00020460BB030BD30B58BB00D460AA901E97B
:1087E0000C0077230693129B0593119B0493109B17
:1087F00003930EAA044692E8030001AB83E803004A
:10880000099B00932046089BAA684FF0000105F0E1
:108810006CFE20460BB030BD30B58BB00D460AA9BA
:1088200001E90C0064230693129B0593119B0493AA
:10883000109B03930EAA044692E8030001AB83E861
:108840000300099B00932046089BAA684FF0000193
:1088500005F04BFE20460BB030BD30B58BB00D4659
:108860000AA901E90C0074230693129B0593119B3E
:108870000493109B03930EAA044692E8030001ABF5
:1088800083E80300099B00932046089BAA684FF0E9
:10889000000105F02AFE20460BB030BD81684FF084
:1088A000000005F01CBEF0B591B00AAC84E80C00E5
:1088B000002307930D930EAB06930DAB0593199B05
:1088C00004939DF86030039316AA0F46054692E87C
:1088D000030001AB83E803000B9B009308AE0A9BE7
:1088E000BA684FF00001304606F0F1F996E803004F
:1088F0000D9B84E803005BB9DDE90E011B9BC3E916
:10890000000194E8030085E80300284611B0F0BD9B
:108910001A9A1360F5E710B588B00DF1200C0CE938
:108920000C00002304939DF8303003930B9B0293BB
:108930009DF828300193079B009313468A684FF0F7
:108940000001044606F0DAF8204608B010BD0A46D9
:1089500001694FF0000005F0BABD07B50968009243
:1089600051F80C3C0A4601694FF0000005F083FD08
:1089700003B05DF804FB13B5049CCDE90034134645
:108980000A46C1684FF0000005F012FC02B010BDAD
:1089900030B58BB00D460AA901E90C007923069386
:1089A000129B0593119B0493109B03930EAA0446FC
:1089B00092E8030001AB83E80300099B0093204683
:1089C000089BAA684FF0000105F0E9FD20460BB0B6
:1089D00030BD30B58BB00D460AA901E90C006D23FE
:1089E0000693129B0593119B0493109B03930EAA6D
:1089F000044692E8030001AB83E80300099B00935F
:108A00002046089BAA684FF0000105F0C8FD2046EB
:108A10000BB030BD30B58BB00D460AA901E90C0092
:108A200077230693129B0593119B0493109B03934A
:108A30000EAA044692E8030001AB83E80300099BF9
:108A400000932046089BAA684FF0000105F0A7FD9F
:108A500020460BB030BD30B58BB00D460AA901E9F8
:108A60000C0064230693129B0593119B0493109BA7
:108A700003930EAA044692E8030001AB83E80300C7
:108A8000099B00932046089BAA684FF0000105F05F
:108A900086FD20460BB030BD30B58BB00D460AA91F
:108AA00001E90C0074230693129B0593119B049318
:108AB000109B03930EAA044692E8030001AB83E8DF
:108AC0000300099B00932046089BAA684FF0000111
:108AD00005F065FD20460BB030BD81684FF0000009
:108AE00005F000BDF0B591B00AAC84E80C0000239D
:108AF00007930D930EAB06930DAB0593199B04934F
:108B00009DF86030039316AA0F46054692E80300CD
:108B100001AB83E803000B9B009308AE0A9BBA6885
:108B20004FF00001304606F06EFA96E803000D9B08
:108B300084E803005BB9DDE90E011B9BC3E900017A
:108B400094E8030085E80300284611B0F0BD1A9AA6
:108B50001360F5E710B588B00DF1200C0CE90C009E
:108B6000002304930C9B03930B9B02939DF82830E6
:108B70000193079B009313468A684FF00001044657
:108B800006F058F9204608B010BD0A4601694FF0BA
:108B9000000005F0A0BC07B50968009251F80C3C34
:108BA0000A4601694FF0000005F07BFC03B05DF858
:108BB00004FB10B50446006843685A1E012B42604E
:108BC00002D103685B689847204610BD10B5074B7B
:108BD0000360036900220446DA600C30FFF7E9FF06
:108BE0002046FEF79FFE204610BD00BFDC790D0039
:108BF00010B50446FFF7EAFF2046FBF750FA20467F
:108C000010BD000010B5084B036003690022044644
:108C1000DA609A611A629A620C30FFF7CAFF204646
:108C2000FEF722FC204610BD087B0D0010B504465F
:108C3000FFF7E8FF2046FBF732FA204610BD0000A0
:108C400010B5084B0360036900220446DA609A619C
:108C50001A629A620C30FFF7ACFF2046FEF71EFC4A
:108C6000204610BDD47A0D0010B50446FFF7E8FF8A
:108C70002046FBF714FA204610BD000010B5054B46
:108C8000044640F8103BFFF794FF204609F0BEF978
:108C9000204610BDA4790D0010B50446FFF7EEFF85
:108CA0002046FBF7FCF9204610BD000010B5074B2D
:108CB0000360036900220446DA600C30FFF779FF95
:108CC0002046FEF797FE204610BD00BF007A0D003B
:108CD00010B50446FFF7EAFF2046FBF7E0F920460F
:108CE00010BD000010B5084B036003690022044664
:108CF000DA601A629A621A630C30FFF75AFF204654
:108D0000FEF776FC204610BD707B0D0010B50446C2
:108D1000FFF7E8FF2046FBF7C2F9204610BD000030
:108D200010B5084B0360036900220446DA601A623A
:108D30009A621A630C30FFF73CFF2046FEF772FC84
:108D4000204610BD3C7B0D0010B50446FFF7E8FF40
:108D50002046FBF7A4F9204610BD000010B5054BD6
:108D6000044640F8103BFFF724FF20460FF01CFE9E
:108D7000204610BDC0790D0010B50446FFF7EEFF88
:108D80002046FBF78CF9204610BD000010B5054BBE
:108D9000044640F80C3BFFF70CFF204609F04EF963
:108DA000204610BD6C790D0010B50446FFF7EEFFAC
:108DB0002046FBF774F9204610BD000010B5054BA6
:108DC000044640F8083BFFF7F4FE204609F098F807
:108DD000204610BD747A0D0010B50446FFF7EEFF73
:108DE0002046FBF75CF9204610BD000010B5054B8E
:108DF000044640F8083BFFF7DCFE204609F08AF8FD
:108E0000204610BDA47A0D0010B50446FFF7EEFF12
:108E10002046FBF744F9204610BD000010B5054B75
:108E2000044640F80C3BFFF7C4FE20460FF0D4FD8B
:108E3000204610BD88790D0010B50446FFF7EEFFFF
:108E40002046FBF72CF9204610BD000010B5054B5D
:108E5000044640F8083BFFF7ACFE20460FF01EFD2D
:108E6000204610BD8C7A0D0010B50446FFF7EEFFCA
:108E70002046FBF714F9204610BD000010B5054B45
:108E8000044640F8083BFFF794FE20460FF010FD23
:108E9000204610BDBC7A0D0010B50446FFF7EEFF6A
:108EA0002046FBF7FCF8204610BD000010B5054B2E
:108EB000044640F8083BFFF77CFE204609F05CF8CA
:108EC000204610BD247A0D0010B50446FFF7EEFFD2
:108ED0002046FBF7E4F8204610BD000010B5054B16
:108EE000044640F8083BFFF764FE20460FF012FDF1
:108EF000204610BD4C7A0D0010B50446FFF7EEFF7A
:108F00002046FBF7CCF8204610BD836910B5044617
:108F100003B19847204610BD37B5084614460D46A4
:108F200009F0B6FA84F82400284609F0B4FA0023C0
:108F3000A3606361E361012384F8643084F8250051
:108F4000294601A809F0AAFA01A904F10800FFF7CF
:108F5000C1FBE06001A801F009F9294601A809F068
:108F6000A4FA01A904F11400FFF7B4FBA06101A861
:108F700001F0FCF8294601A809F09EFA01A904F1C4
:108F80001C00FFF7A7FB206201A801F0EFF803B077
:108F900030BD37B5084614460D460FF06FFF6062CE
:108FA00028460FF06EFF0023A3606361E361012395
:108FB00084F82431A062294601A80FF065FF01A9B9
:108FC00004F10800FFF786FBE06001A801F0CEF88D
:108FD000294601A80FF05FFF01A904F11400FFF773
:108FE0008EFBA06101A801F06DFC294601A80FF0DD
:108FF00059FF01A904F11C00FFF781FB206201A8C1
:1090000001F060FC03B030BD10B4084611461A46AA
:10901000DDE9013401945DF8044B09F091BB10B413
:10902000084611461A46DDE9013401945DF8044B07
:1090300010F07CB837B5084614460D4609F079F9AA
:109040006074284609F078F9A074284609F093F96D
:109050000023A3606361E3616362012384F843300A
:10906000E062294601A809F06AF901A904F10800A3
:10907000FFF730FBE06001A801F078F8294601A86D
:1090800009F064F901A904F11400FFF723FBA061C2
:1090900001A801F06BF8294601A809F05EF901A9C1
:1090A00004F11C00FFF716FB206201A801F05EF836
:1090B000294601A809F058F901A904F12400FFF795
:1090C00009FBA06201A801F051F8284609F056F901
:1090D0002063284609F057F9606303B030BD37B507
:1090E000084614460D4609F0F5F86074284609F064
:1090F000F4F8A074284609F00FF90023A360636117
:10910000E3616362012384F84330E062294601A8E9
:1091100009F0E6F801A904F10800FFF7DBFAE060C6
:1091200001A801F023F8294601A809F0E0F801A9F7
:1091300004F11400FFF7CEFAA06101A801F016F8BF
:10914000294601A809F0DAF801A904F11C00FFF78B
:10915000C1FA206201A801F009F8294601A809F026
:10916000D4F801A904F12400FFF7B4FAA06201A821
:1091700000F0FCFF284609F0D2F82063284609F0E9
:10918000D3F8606303B030BD37B5084614460D46CA
:109190000FF0C5FD606128460FF0C4FDA0612846B0
:1091A0000FF0DFFD0023A360E3616362E36201234C
:1091B00084F86C306063294601A80FF0B6FD01A960
:1091C00004F10800FFF786FAE06001A800F0CEFF86
:1091D000294601A80FF0B0FD01A904F11C00FFF71A
:1091E0008EFA206201A801F06DFB294601A80FF05C
:1091F000AAFD01A904F12400FFF781FAA06201A8E9
:1092000001F060FB294601A80FF0A4FD01A904F1BB
:109210002C00FFF774FA206301A801F053FB2846E5
:109220000FF0A2FDA06328460FF0A3FDE06303B09A
:1092300030BD37B5084614460D460FF041FD60615C
:1092400028460FF040FDA06128460FF05BFD00238B
:10925000A360E3616362E362012384F86C306063BE
:10926000294601A80FF032FD01A904F10800FFF71B
:1092700031FAE06001A800F079FF294601A80FF05B
:109280002CFD01A904F11C00FFF739FA206201A8A6
:1092900001F018FB294601A80FF026FD01A904F1F1
:1092A0002400FFF72CFAA06201A801F00BFB29466D
:1092B00001A80FF020FD01A904F12C00FFF71FFA0F
:1092C000206301A801F0FEFA28460FF01EFDA063FE
:1092D00028460FF01FFDE06303B030BD13B50C4608
:1092E00001A811461A466B4601F09CF9049A01A99F
:1092F000204609F013FA044601A800F037FF204683
:1093000002B010BD13B50C4601A811461A466B46B3
:1093100001F088F9049A01A920460FF0F5FE0446F1
:1093200001A800F023FF204602B010BD08461146F8
:1093300009F003BA084611460FF0F5BE084609F0D9
:109340004EB908460FF041BE82B0F0B587B0054671
:109350009DF850700D93742F16461398DDE9112176
:109360000FAC0DAB1ED00ED8642F2DD0CDE903105D
:10937000029294E803008DE8030031460CCB2846A6
:1093800009F084F91AE0772F2BD0CDE9031002926F
:1093900094E803008DE8030031460CCB284609F021
:1093A00091F90BE0CDE90310029294E803008DE8F7
:1093B000030031460CCB284609F014F9284607B0C3
:1093C000BDE8F04002B07047CDE90310029294E886
:1093D00003008DE8030031460CCB284609F01EF946
:1093E000ECE7CDE90310029294E803008DE8030056
:1093F00031460CCB284609F02DF9DFE782B0F0B5F5
:1094000087B005469DF850700D93742F164613983B
:10941000DDE911210FAC0DAB1ED00ED8642F2DD07D
:10942000CDE90310029294E803008DE80300314671
:109430000CCB28460FF020FE1AE0772F2BD0CDE979
:109440000310029294E803008DE8030031460CCB30
:1094500028460FF02DFE0BE0CDE90310029294E8B0
:1094600003008DE8030031460CCB28460FF0B0FD19
:10947000284607B0BDE8F04002B07047CDE90310C0
:10948000029294E803008DE8030031460CCB284695
:109490000FF0BAFDECE7CDE90310029294E8030067
:1094A0008DE8030031460CCB28460FF0C9FDDFE7FD
:1094B000F8B5AF4A0C466FF00103AE49054615F00A
:1094C00053F8064610B104682046F8BDAA4B9C42EA
:1094D00029D16820FAF7DFFDA84B46600746C0E9AE
:1094E0000266C0E90566C0E9076603600674868403
:1094F00080F864601420FAF7CEFDA14B466003604B
:10950000876031460446FEF7BFF96B68E5600133BA
:109510006B609C4B236027613A4629464FF0000060
:1095200004F0C1FDD0E7984B9C4210D11020FAF70F
:10953000B2FD964B036046600446FCF783FF6B6800
:10954000C4E9020501336B60914B2360BCE7914B8A
:109550009C420AD10C20FAF79EFD6B6801336B60C8
:10956000C0E901658C4B0446EFE78C4B9C420AD165
:109570000C20FAF790FD6B6801336B60C0E9016560
:10958000874B0446E1E7874B9C420AD10C20FAF74F
:1095900082FD6B6801336B60C0E90165824B044654
:1095A000D3E7824B9C422FD14420FAF774FD804BC5
:1095B00006820746C0E90036C0E90266C0E90566D2
:1095C000C0E90766C0E90966C0E90B6686744663B0
:1095D00080F843601420FAF75EFD764B4660036026
:1095E0008760324631460446FDF7B6FE6B68E5609B
:1095F00001336B60704B236027613A4629464FF078
:10960000000004F0E0FD5FE76C4B9C422FD144204A
:10961000FAF741FD6A4B06820746C0E90036C0E909
:109620000266C0E90566C0E90766C0E90966C0E9E7
:109630000B668674466380F843601420FAF72BFDAE
:10964000604B466003608760324631460446FDF752
:10965000C7FE6B68E56001336B605B4B236027617D
:109660003A4629464FF0000004F003FE2CE7574B22
:109670009C420CD11420FAF70EFD3146044609F045
:109680003DF86B68256101336B60514B5DE7514BD1
:109690009C422CD14FF49470FAF7FDFC00274E4BFE
:1096A00047600646C0E90277C0E90577C0E9077759
:1096B000C0E909770360077480F824711420FAF771
:1096C000EAFC464B47600360866039460446FEF775
:1096D00043F96B68E56001336B60414B23602661A1
:1096E000324629464FF0000004F01BFDECE63D4BEE
:1096F0009C4210D11020FAF7CEFC002343603A4B75
:1097000003600446FCF79EFE6B6801336B60C4E99E
:109710000205364B19E7364B9C420BD10C20FAF769
:10972000BAFC0023C0E901356B6801336B60044665
:10973000304B0AE7304B9C420BD10C20FAF7ABFCC4
:109740000023C0E901356B6801336B6004462B4B85
:10975000FBE62B4B9C4257D10C20FAF79CFC0023D4
:10976000C0E901356B6801336B600446254BECE6BC
:10977000F0730D00F46E0D00DCE1032018700D0095
:10978000A88E0D00DC790D00C0E103208C8E0D0049
:109790006C790D00C8E10320247A0D00E4E1032078
:1097A000747A0D00E0E10320A47A0D00E8E10320C3
:1097B000A06F0D00588F0D00087B0D00ECE1032019
:1097C000B06F0D008C8F0D00D47A0D00C4E1032022
:1097D000A4790D003CE2032028700D00FC970D00D9
:1097E000007A0D0020E20320A0970D0088790D007B
:1097F00028E203204C7A0D0044E203208C7A0D000D
:1098000040E20320BC7A0D003E4B9C4231D17020D7
:10981000FAF741FC00273C4B47600646C0E9027757
:10982000C0E90577C0E90777C0E90977C0E90B7798
:10983000C0E90D7703600774C76380F86C7014206B
:10984000FAF729FC314B4760036086603A46394697
:109850000446FDF73DFE6B68E56001336B602C4B01
:1098600023602661324629464FF0000004F057FD80
:109870002AE6284B9C4231D17020FAF70CFC0027D5
:10988000254B47600646C0E90277C0E90577C0E985
:109890000777C0E90977C0E90B77C0E90D77036066
:1098A0000774C76380F86C701420FAF7F4FB1B4B45
:1098B0004760036086603A4639460446FDF750FE2D
:1098C0006B68E56001336B60154B2360266132469F
:1098D00029464FF0000004F078FDF5E5114B9C425D
:1098E0000CD11420FAF7D7FB002104460FF0FCFB43
:1098F0006B68256101336B600B4B26E60B4808F063
:1099000025F800BF48E20320C06F0D00AC980D00A1
:10991000707B0D004CE20320D06F0D00E0980D002D
:109920003C7B0D0024E20320C0790D008C730D00F8
:109930008B6913B5044613B9054808F007F8D1E957
:10994000001201AB00F06EFE204602B010BD00BF59
:10995000B9730D0010B58AB0044600930020134679
:10996000C968099003AA05F0A1F903A92046FFF7E9
:10997000DFFF03A8FFF7C9FA20460AB010BD30B5D3
:109980008DB0044600200B901198006850F80C5CD4
:10999000CDE902051098CDE900301346096905AA02
:1099A0004FF0000005F00CFA05A92046FFF7C0FFB4
:1099B00005A8FFF7AAFA20460DB030BD82B02DE908
:1099C000F04786B0044614999DF84480DDF848902D
:1099D0009DF84CA00F9315460FAEB1B105AF3846B8
:1099E000FFF7A6FFCDE902A7CDE90089204696E85A
:1099F0000C00294608F020FD384600F0B7FB204651
:109A000006B0BDE8F04702B07047CDE9019ACDF845
:109A1000008096E80C00294608F0F8FCEFE7F0B566
:109A200097B00AAC84E80C000FAE0023CDE90636EF
:109A300015930D930DAB05931F9B04939DF8783000
:109A400003931CAA8C46054692E8030001AB83E809
:109A500003000B9B009308AF0A9BDCF808204FF033
:109A60000001384605F033F997E803000D9B84E8C0
:109A70000300A3B931460EA8FFF75AFF21980EA99B
:109A800000F0C6FA0EA800F071FB94E8030085E828
:109A900003003046FFF739FA284617B0F0BD209A88
:109AA0001360F2E738B5836904460D4603B1984761
:109AB0002946204600F098FD2B6853F80C3C636063
:109AC000014BA361204638BDCD860B00000000008D
:109AD00070B590B009AD0E4606A981E80C000446A9
